{
  "_format": "hh-sol-artifact-1",
  "contractName": "AngshuWallet",
  "sourceName": "contracts/Assessment.sol",
  "abi": [
    {
      "inputs": [
        {
          "internalType": "uint256",
          "name": "initAmount",
          "type": "uint256"
        }
      ],
      "stateMutability": "payable",
      "type": "constructor"
    },
    {
      "inputs": [
        {
          "internalType": "uint256",
          "name": "balance",
          "type": "uint256"
        },
        {
          "internalType": "uint256",
          "name": "withdrawAmount",
          "type": "uint256"
        }
      ],
      "name": "LowBalance",
      "type": "error"
    },
    {
      "anonymous": false,
      "inputs": [
        {
          "indexed": false,
          "internalType": "uint256",
          "name": "_number",
          "type": "uint256"
        }
      ],
      "name": "onBuyNFT",
      "type": "event"
    },
    {
      "anonymous": false,
      "inputs": [
        {
          "indexed": false,
          "internalType": "uint256",
          "name": "amount",
          "type": "uint256"
        }
      ],
      "name": "onDeposit",
      "type": "event"
    },
    {
      "anonymous": false,
      "inputs": [
        {
          "indexed": false,
          "internalType": "uint256",
          "name": "amount",
          "type": "uint256"
        }
      ],
      "name": "onWithdraw",
      "type": "event"
    },
    {
      "inputs": [
        {
          "internalType": "uint256",
          "name": "_number",
          "type": "uint256"
        }
      ],
      "name": "BuyNFT",
      "outputs": [],
      "stateMutability": "nonpayable",
      "type": "function"
    },
    {
      "inputs": [
        {
          "internalType": "uint256",
          "name": "depositAmount",
          "type": "uint256"
        }
      ],
      "name": "DepositToken",
      "outputs": [],
      "stateMutability": "payable",
      "type": "function"
    },
    {
      "inputs": [
        {
          "internalType": "uint256",
          "name": "withdrawAmount",
          "type": "uint256"
        }
      ],
      "name": "WithdrawToken",
      "outputs": [],
      "stateMutability": "nonpayable",
      "type": "function"
    },
    {
      "inputs": [],
      "name": "balance",
      "outputs": [
        {
          "internalType": "uint256",
          "name": "",
          "type": "uint256"
        }
      ],
      "stateMutability": "view",
      "type": "function"
    },
    {
      "inputs": [],
      "name": "getBalance",
      "outputs": [
        {
          "internalType": "uint256",
          "name": "",
          "type": "uint256"
        }
      ],
      "stateMutability": "view",
      "type": "function"
    },
    {
      "inputs": [],
      "name": "getContractAddress",
      "outputs": [
        {
          "internalType": "address",
          "name": "",
          "type": "address"
        }
      ],
      "stateMutability": "view",
      "type": "function"
    },
    {
      "inputs": [],
      "name": "getContractBalance",
      "outputs": [
        {
          "internalType": "uint256",
          "name": "",
          "type": "uint256"
        }
      ],
      "stateMutability": "view",
      "type": "function"
    },
    {
      "inputs": [],
      "name": "owner",
      "outputs": [
        {
          "internalType": "address payable",
          "name": "",
          "type": "address"
        }
      ],
      "stateMutability": "view",
      "type": "function"
    }
  ],
  "bytecode": "0x6080604052604051610858380380610858833981810160405281019061002591906100ad565b336000806101000a81548173ffffffffffffffffffffffffffffffffffffffff021916908373ffffffffffffffffffffffffffffffffffffffff16021790555080600181905550506100da565b600080fd5b6000819050919050565b61008a81610077565b811461009557600080fd5b50565b6000815190506100a781610081565b92915050565b6000602082840312156100c3576100c2610072565b5b60006100d184828501610098565b91505092915050565b61076f806100e96000396000f3fe60806040526004361061007b5760003560e01c8063a37365e01161004e578063a37365e01461012c578063a4b910fb14610155578063b69ef8a81461017e578063b6f570ad146101a95761007b565b806312065fe01461008057806332a2c5d0146100ab5780636f9fb98a146100d65780638da5cb5b14610101575b600080fd5b34801561008c57600080fd5b506100956101c5565b6040516100a291906104bc565b60405180910390f35b3480156100b757600080fd5b506100c06101cf565b6040516100cd9190610518565b60405180910390f35b3480156100e257600080fd5b506100eb6101d7565b6040516100f891906104bc565b60405180910390f35b34801561010d57600080fd5b506101166101df565b6040516101239190610554565b60405180910390f35b34801561013857600080fd5b50610153600480360381019061014e91906105a0565b610203565b005b34801561016157600080fd5b5061017c600480360381019061017791906105a0565b610246565b005b34801561018a57600080fd5b50610193610397565b6040516101a091906104bc565b60405180910390f35b6101c360048036038101906101be91906105a0565b61039d565b005b6000600154905090565b600030905090565b600047905090565b60008054906101000a900473ffffffffffffffffffffffffffffffffffffffff1681565b61020c81610246565b7f59f898344a85c06f7765605014866e5e566b386d15383c37e9619d1537fe132d8160405161023b91906104bc565b60405180910390a150565b60008054906101000a900473ffffffffffffffffffffffffffffffffffffffff1673ffffffffffffffffffffffffffffffffffffffff163373ffffffffffffffffffffffffffffffffffffffff16146102d4576040517f08c379a00000000000000000000000000000000000000000000000000000000081526004016102cb9061062a565b60405180910390fd5b6000600154905081600154101561032657600154826040517fd043851100000000000000000000000000000000000000000000000000000000815260040161031d92919061064a565b60405180910390fd5b816001600082825461033891906106a2565b92505081905550818161034b91906106a2565b6001541461035c5761035b6106d6565b5b7f4b6d39f55e95a18496bd527873b6f5ef8bceb5be9f9519641eb2f25e954486e48260405161038b91906104bc565b60405180910390a15050565b60015481565b6000600154905060008054906101000a900473ffffffffffffffffffffffffffffffffffffffff1673ffffffffffffffffffffffffffffffffffffffff163373ffffffffffffffffffffffffffffffffffffffff1614610432576040517f08c379a00000000000000000000000000000000000000000000000000000000081526004016104299061062a565b60405180910390fd5b81600160008282546104449190610705565b9250508190555081816104579190610705565b60015414610468576104676106d6565b5b7f8287ccb4b333390e635957e281e09e378d795820c6332c3419ecb6b2af2e6b988260405161049791906104bc565b60405180910390a15050565b6000819050919050565b6104b6816104a3565b82525050565b60006020820190506104d160008301846104ad565b92915050565b600073ffffffffffffffffffffffffffffffffffffffff82169050919050565b6000610502826104d7565b9050919050565b610512816104f7565b82525050565b600060208201905061052d6000830184610509565b92915050565b600061053e826104d7565b9050919050565b61054e81610533565b82525050565b60006020820190506105696000830184610545565b92915050565b600080fd5b61057d816104a3565b811461058857600080fd5b50565b60008135905061059a81610574565b92915050565b6000602082840312156105b6576105b561056f565b5b60006105c48482850161058b565b91505092915050565b600082825260208201905092915050565b7f596f7520646f206e6f74206f776e20746865206163636f756e74000000000000600082015250565b6000610614601a836105cd565b915061061f826105de565b602082019050919050565b6000602082019050818103600083015261064381610607565b9050919050565b600060408201905061065f60008301856104ad565b61066c60208301846104ad565b9392505050565b7f4e487b7100000000000000000000000000000000000000000000000000000000600052601160045260246000fd5b60006106ad826104a3565b91506106b8836104a3565b92508282039050818111156106d0576106cf610673565b5b92915050565b7f4e487b7100000000000000000000000000000000000000000000000000000000600052600160045260246000fd5b6000610710826104a3565b915061071b836104a3565b925082820190508082111561073357610732610673565b5b9291505056fea26469706673582212205aa999489699e71c047ac98751f500aaeac4b2f218a7f56d9d21fa52ae35bef664736f6c63430008110033",
  "linkReferences": {},
  "deployedLinkReferences": {}
}